{
  "contractName": "ApartmentContract",
  "abi": [
    {
      "inputs": [],
      "stateMutability": "nonpayable",
      "type": "constructor"
    },
    {
      "anonymous": false,
      "inputs": [
        {
          "indexed": false,
          "internalType": "uint256",
          "name": "id",
          "type": "uint256"
        },
        {
          "indexed": false,
          "internalType": "string",
          "name": "name",
          "type": "string"
        },
        {
          "indexed": false,
          "internalType": "string",
          "name": "location",
          "type": "string"
        },
        {
          "indexed": false,
          "internalType": "uint256",
          "name": "price",
          "type": "uint256"
        },
        {
          "indexed": false,
          "internalType": "bool",
          "name": "isBought",
          "type": "bool"
        },
        {
          "indexed": false,
          "internalType": "uint256",
          "name": "boughtAt",
          "type": "uint256"
        }
      ],
      "name": "ApartmentCreated",
      "type": "event"
    },
    {
      "inputs": [],
      "name": "apartmentCounter",
      "outputs": [
        {
          "internalType": "uint256",
          "name": "",
          "type": "uint256"
        }
      ],
      "stateMutability": "view",
      "type": "function",
      "constant": true
    },
    {
      "inputs": [
        {
          "internalType": "uint256",
          "name": "",
          "type": "uint256"
        }
      ],
      "name": "apartments",
      "outputs": [
        {
          "internalType": "uint256",
          "name": "id",
          "type": "uint256"
        },
        {
          "internalType": "string",
          "name": "name",
          "type": "string"
        },
        {
          "internalType": "string",
          "name": "location",
          "type": "string"
        },
        {
          "internalType": "uint256",
          "name": "price",
          "type": "uint256"
        },
        {
          "internalType": "bool",
          "name": "isBought",
          "type": "bool"
        },
        {
          "internalType": "uint256",
          "name": "boughtAt",
          "type": "uint256"
        }
      ],
      "stateMutability": "view",
      "type": "function",
      "constant": true
    },
    {
      "inputs": [
        {
          "internalType": "address",
          "name": "",
          "type": "address"
        }
      ],
      "name": "buyers",
      "outputs": [
        {
          "internalType": "address payable",
          "name": "walletAddress",
          "type": "address"
        },
        {
          "internalType": "string",
          "name": "firstName",
          "type": "string"
        },
        {
          "internalType": "string",
          "name": "lastName",
          "type": "string"
        },
        {
          "internalType": "uint256",
          "name": "balance",
          "type": "uint256"
        },
        {
          "internalType": "uint256",
          "name": "due",
          "type": "uint256"
        },
        {
          "internalType": "uint256",
          "name": "boughtApartmentId",
          "type": "uint256"
        }
      ],
      "stateMutability": "view",
      "type": "function",
      "constant": true
    },
    {
      "inputs": [],
      "name": "owner",
      "outputs": [
        {
          "internalType": "address",
          "name": "",
          "type": "address"
        }
      ],
      "stateMutability": "view",
      "type": "function",
      "constant": true
    },
    {
      "inputs": [
        {
          "internalType": "string",
          "name": "_name",
          "type": "string"
        },
        {
          "internalType": "string",
          "name": "_location",
          "type": "string"
        },
        {
          "internalType": "uint256",
          "name": "_price",
          "type": "uint256"
        }
      ],
      "name": "createApartment",
      "outputs": [],
      "stateMutability": "nonpayable",
      "type": "function"
    },
    {
      "inputs": [
        {
          "internalType": "uint256",
          "name": "apartmentId",
          "type": "uint256"
        }
      ],
      "name": "buyApartment",
      "outputs": [],
      "stateMutability": "payable",
      "type": "function",
      "payable": true
    },
    {
      "inputs": [
        {
          "internalType": "uint256",
          "name": "id",
          "type": "uint256"
        }
      ],
      "name": "getApartment",
      "outputs": [
        {
          "components": [
            {
              "internalType": "uint256",
              "name": "id",
              "type": "uint256"
            },
            {
              "internalType": "string",
              "name": "name",
              "type": "string"
            },
            {
              "internalType": "string",
              "name": "location",
              "type": "string"
            },
            {
              "internalType": "uint256",
              "name": "price",
              "type": "uint256"
            },
            {
              "internalType": "bool",
              "name": "isBought",
              "type": "bool"
            },
            {
              "internalType": "uint256",
              "name": "boughtAt",
              "type": "uint256"
            }
          ],
          "internalType": "struct ApartmentContract.Apartment",
          "name": "",
          "type": "tuple"
        }
      ],
      "stateMutability": "view",
      "type": "function",
      "constant": true
    },
    {
      "inputs": [
        {
          "internalType": "address",
          "name": "buyerAddress",
          "type": "address"
        }
      ],
      "name": "getBuyer",
      "outputs": [
        {
          "components": [
            {
              "internalType": "address payable",
              "name": "walletAddress",
              "type": "address"
            },
            {
              "internalType": "string",
              "name": "firstName",
              "type": "string"
            },
            {
              "internalType": "string",
              "name": "lastName",
              "type": "string"
            },
            {
              "internalType": "uint256",
              "name": "balance",
              "type": "uint256"
            },
            {
              "internalType": "uint256",
              "name": "due",
              "type": "uint256"
            },
            {
              "internalType": "uint256",
              "name": "boughtApartmentId",
              "type": "uint256"
            }
          ],
          "internalType": "struct ApartmentContract.Buyer",
          "name": "",
          "type": "tuple"
        }
      ],
      "stateMutability": "view",
      "type": "function",
      "constant": true
    }
  ],
  "bytecode": "0x6080604052600060015534801561001557600080fd5b50336000806101000a81548173ffffffffffffffffffffffffffffffffffffffff021916908373ffffffffffffffffffffffffffffffffffffffff16021790555061192f806100656000396000f3fe60806040526004361061007b5760003560e01c8063abb8be171161004e578063abb8be1714610155578063c4452e0614610197578063dd69fd47146101d4578063fc6d7ce1146101fd5761007b565b80635721e419146100805780635ee763e0146100bd5780638da5cb5b146100e857806397a993aa14610113575b600080fd5b34801561008c57600080fd5b506100a760048036038101906100a29190610e9c565b610219565b6040516100b49190611380565b60405180910390f35b3480156100c957600080fd5b506100d261040a565b6040516100df91906113a2565b60405180910390f35b3480156100f457600080fd5b506100fd610410565b60405161010a9190611274565b60405180910390f35b34801561011f57600080fd5b5061013a60048036038101906101359190610e9c565b610434565b60405161014c9695949392919061128f565b60405180910390f35b34801561016157600080fd5b5061017c60048036038101906101779190610f54565b6105a0565b60405161018e9695949392919061142c565b60405180910390f35b3480156101a357600080fd5b506101be60048036038101906101b99190610f54565b6106f9565b6040516101cb919061135e565b60405180910390f35b3480156101e057600080fd5b506101fb60048036038101906101f69190610ec9565b610883565b005b61021760048036038101906102129190610f54565b610a35565b005b610221610cdb565b600360008373ffffffffffffffffffffffffffffffffffffffff1673ffffffffffffffffffffffffffffffffffffffff1681526020019081526020016000206040518060c00160405290816000820160009054906101000a900473ffffffffffffffffffffffffffffffffffffffff1673ffffffffffffffffffffffffffffffffffffffff1673ffffffffffffffffffffffffffffffffffffffff1681526020016001820180546102d1906116a6565b80601f01602080910402602001604051908101604052809291908181526020018280546102fd906116a6565b801561034a5780601f1061031f5761010080835404028352916020019161034a565b820191906000526020600020905b81548152906001019060200180831161032d57829003601f168201915b50505050508152602001600282018054610363906116a6565b80601f016020809104026020016040519081016040528092919081815260200182805461038f906116a6565b80156103dc5780601f106103b1576101008083540402835291602001916103dc565b820191906000526020600020905b8154815290600101906020018083116103bf57829003601f168201915b5050505050815260200160038201548152602001600482015481526020016005820154815250509050919050565b60015481565b60008054906101000a900473ffffffffffffffffffffffffffffffffffffffff1681565b60036020528060005260406000206000915090508060000160009054906101000a900473ffffffffffffffffffffffffffffffffffffffff169080600101805461047d906116a6565b80601f01602080910402602001604051908101604052809291908181526020018280546104a9906116a6565b80156104f65780601f106104cb576101008083540402835291602001916104f6565b820191906000526020600020905b8154815290600101906020018083116104d957829003601f168201915b50505050509080600201805461050b906116a6565b80601f0160208091040260200160405190810160405280929190818152602001828054610537906116a6565b80156105845780601f1061055957610100808354040283529160200191610584565b820191906000526020600020905b81548152906001019060200180831161056757829003601f168201915b5050505050908060030154908060040154908060050154905086565b60026020528060005260406000206000915090508060000154908060010180546105c9906116a6565b80601f01602080910402602001604051908101604052809291908181526020018280546105f5906116a6565b80156106425780601f1061061757610100808354040283529160200191610642565b820191906000526020600020905b81548152906001019060200180831161062557829003601f168201915b505050505090806002018054610657906116a6565b80601f0160208091040260200160405190810160405280929190818152602001828054610683906116a6565b80156106d05780601f106106a5576101008083540402835291602001916106d0565b820191906000526020600020905b8154815290600101906020018083116106b357829003601f168201915b5050505050908060030154908060040160009054906101000a900460ff16908060050154905086565b610701610d27565b600260008381526020019081526020016000206040518060c001604052908160008201548152602001600182018054610739906116a6565b80601f0160208091040260200160405190810160405280929190818152602001828054610765906116a6565b80156107b25780601f10610787576101008083540402835291602001916107b2565b820191906000526020600020905b81548152906001019060200180831161079557829003601f168201915b505050505081526020016002820180546107cb906116a6565b80601f01602080910402602001604051908101604052809291908181526020018280546107f7906116a6565b80156108445780601f1061081957610100808354040283529160200191610844565b820191906000526020600020905b81548152906001019060200180831161082757829003601f168201915b50505050508152602001600382015481526020016004820160009054906101000a900460ff161515151581526020016005820154815250509050919050565b60008054906101000a900473ffffffffffffffffffffffffffffffffffffffff1673ffffffffffffffffffffffffffffffffffffffff163373ffffffffffffffffffffffffffffffffffffffff1614610911576040517f08c379a00000000000000000000000000000000000000000000000000000000081526004016109089061133e565b60405180910390fd5b6001600081548092919061092490611709565b91905055506040518060c0016040528060015481526020018481526020018381526020018281526020016000151581526020016000815250600260006001548152602001908152602001600020600082015181600001556020820151816001019080519060200190610997929190610d5f565b5060408201518160020190805190602001906109b4929190610d5f565b506060820151816003015560808201518160040160006101000a81548160ff02191690831515021790555060a082015181600501559050507f540409395e7f4db5531016e7230a0ae694a6510ff590841d188c0fd6c8bdb6ac600154848484600080604051610a28969594939291906113bd565b60405180910390a1505050565b60006002600083815260200190815260200160002090508060040160009054906101000a900460ff1615610a9e576040517f08c379a0000000000000000000000000000000000000000000000000000000008152600401610a959061131e565b60405180910390fd5b8060030154341015610ae5576040517f08c379a0000000000000000000000000000000000000000000000000000000008152600401610adc906112fe565b60405180910390fd5b60018160040160006101000a81548160ff0219169083151502179055504281600501819055506000600360003373ffffffffffffffffffffffffffffffffffffffff1673ffffffffffffffffffffffffffffffffffffffff1681526020019081526020016000209050600073ffffffffffffffffffffffffffffffffffffffff168160000160009054906101000a900473ffffffffffffffffffffffffffffffffffffffff1673ffffffffffffffffffffffffffffffffffffffff161415610beb57338160000160006101000a81548173ffffffffffffffffffffffffffffffffffffffff021916908373ffffffffffffffffffffffffffffffffffffffff1602179055505b34816003016000828254610bff91906115a2565b9250508190555082816005018190555060008054906101000a900473ffffffffffffffffffffffffffffffffffffffff1673ffffffffffffffffffffffffffffffffffffffff166108fc349081150290604051600060405180830381858888f19350505050158015610c75573d6000803e3d6000fd5b507f540409395e7f4db5531016e7230a0ae694a6510ff590841d188c0fd6c8bdb6ac83836001018460020185600301548660040160009054906101000a900460ff168760050154604051610cce9695949392919061149b565b60405180910390a1505050565b6040518060c00160405280600073ffffffffffffffffffffffffffffffffffffffff16815260200160608152602001606081526020016000815260200160008152602001600081525090565b6040518060c0016040528060008152602001606081526020016060815260200160008152602001600015158152602001600081525090565b828054610d6b906116a6565b90600052602060002090601f016020900481019282610d8d5760008555610dd4565b82601f10610da657805160ff1916838001178555610dd4565b82800160010185558215610dd4579182015b82811115610dd3578251825591602001919060010190610db8565b5b509050610de19190610de5565b5090565b5b80821115610dfe576000816000905550600101610de6565b5090565b6000610e15610e108461152f565b61150a565b905082815260208101848484011115610e3157610e306117e4565b5b610e3c848285611664565b509392505050565b600081359050610e53816118cb565b92915050565b600082601f830112610e6e57610e6d6117df565b5b8135610e7e848260208601610e02565b91505092915050565b600081359050610e96816118e2565b92915050565b600060208284031215610eb257610eb16117ee565b5b6000610ec084828501610e44565b91505092915050565b600080600060608486031215610ee257610ee16117ee565b5b600084013567ffffffffffffffff811115610f0057610eff6117e9565b5b610f0c86828701610e59565b935050602084013567ffffffffffffffff811115610f2d57610f2c6117e9565b5b610f3986828701610e59565b9250506040610f4a86828701610e87565b9150509250925092565b600060208284031215610f6a57610f696117ee565b5b6000610f7884828501610e87565b91505092915050565b610f8a8161160a565b82525050565b610f998161160a565b82525050565b610fa8816115f8565b82525050565b610fb78161161c565b82525050565b610fc68161161c565b82525050565b610fd581611652565b82525050565b6000610fe682611575565b610ff08185611580565b9350611000818560208601611673565b611009816117f3565b840191505092915050565b600061101f82611575565b6110298185611591565b9350611039818560208601611673565b611042816117f3565b840191505092915050565b6000815461105a816116a6565b6110648186611591565b9450600182166000811461107f5760018114611091576110c4565b60ff19831686526020860193506110c4565b61109a85611560565b60005b838110156110bc5781548189015260018201915060208101905061109d565b808801955050505b50505092915050565b60006110da602783611591565b91506110e582611804565b604082019050919050565b60006110fd601883611591565b915061110882611853565b602082019050919050565b6000611120602283611591565b915061112b8261187c565b604082019050919050565b600060c08301600083015161114e6000860182611256565b50602083015184820360208601526111668282610fdb565b915050604083015184820360408601526111808282610fdb565b91505060608301516111956060860182611256565b5060808301516111a86080860182610fae565b5060a08301516111bb60a0860182611256565b508091505092915050565b600060c0830160008301516111de6000860182610f81565b50602083015184820360208601526111f68282610fdb565b915050604083015184820360408601526112108282610fdb565b91505060608301516112256060860182611256565b5060808301516112386080860182611256565b5060a083015161124b60a0860182611256565b508091505092915050565b61125f81611648565b82525050565b61126e81611648565b82525050565b60006020820190506112896000830184610f9f565b92915050565b600060c0820190506112a46000830189610f90565b81810360208301526112b68188611014565b905081810360408301526112ca8187611014565b90506112d96060830186611265565b6112e66080830185611265565b6112f360a0830184611265565b979650505050505050565b60006020820190508181036000830152611317816110cd565b9050919050565b60006020820190508181036000830152611337816110f0565b9050919050565b6000602082019050818103600083015261135781611113565b9050919050565b600060208201905081810360008301526113788184611136565b905092915050565b6000602082019050818103600083015261139a81846111c6565b905092915050565b60006020820190506113b76000830184611265565b92915050565b600060c0820190506113d26000830189611265565b81810360208301526113e48188611014565b905081810360408301526113f88187611014565b90506114076060830186611265565b6114146080830185610fbd565b61142160a0830184610fcc565b979650505050505050565b600060c0820190506114416000830189611265565b81810360208301526114538188611014565b905081810360408301526114678187611014565b90506114766060830186611265565b6114836080830185610fbd565b61149060a0830184611265565b979650505050505050565b600060c0820190506114b06000830189611265565b81810360208301526114c2818861104d565b905081810360408301526114d6818761104d565b90506114e56060830186611265565b6114f26080830185610fbd565b6114ff60a0830184611265565b979650505050505050565b6000611514611525565b905061152082826116d8565b919050565b6000604051905090565b600067ffffffffffffffff82111561154a576115496117b0565b5b611553826117f3565b9050602081019050919050565b60008190508160005260206000209050919050565b600081519050919050565b600082825260208201905092915050565b600082825260208201905092915050565b60006115ad82611648565b91506115b883611648565b9250827fffffffffffffffffffffffffffffffffffffffffffffffffffffffffffffffff038211156115ed576115ec611752565b5b828201905092915050565b600061160382611628565b9050919050565b600061161582611628565b9050919050565b60008115159050919050565b600073ffffffffffffffffffffffffffffffffffffffff82169050919050565b6000819050919050565b600061165d82611648565b9050919050565b82818337600083830152505050565b60005b83811015611691578082015181840152602081019050611676565b838111156116a0576000848401525b50505050565b600060028204905060018216806116be57607f821691505b602082108114156116d2576116d1611781565b5b50919050565b6116e1826117f3565b810181811067ffffffffffffffff82111715611700576116ff6117b0565b5b80604052505050565b600061171482611648565b91507fffffffffffffffffffffffffffffffffffffffffffffffffffffffffffffffff82141561174757611746611752565b5b600182019050919050565b7f4e487b7100000000000000000000000000000000000000000000000000000000600052601160045260246000fd5b7f4e487b7100000000000000000000000000000000000000000000000000000000600052602260045260246000fd5b7f4e487b7100000000000000000000000000000000000000000000000000000000600052604160045260246000fd5b600080fd5b600080fd5b600080fd5b600080fd5b6000601f19601f8301169050919050565b7f496e73756666696369656e742066756e647320746f206275792074686520617060008201527f6172746d656e7400000000000000000000000000000000000000000000000000602082015250565b7f41706172746d656e7420616c726561647920626f756768740000000000000000600082015250565b7f4f6e6c79206f776e65722063616e20706572666f726d2074686973206163746960008201527f6f6e000000000000000000000000000000000000000000000000000000000000602082015250565b6118d4816115f8565b81146118df57600080fd5b50565b6118eb81611648565b81146118f657600080fd5b5056fea264697066735822122014dae556c49836150601efb5de597477d5643a30324c18a81ba7381ed66a5baf64736f6c63430008060033",
  "immutableReferences": {},
  "source": "// SPDX-License-Identifier: MIT\r\npragma solidity ^0.8.0;\r\n\r\ncontract ApartmentContract  {\r\n\r\n    address public owner;\r\n    uint256 public apartmentCounter = 0;\r\n\r\n    constructor() {\r\n        owner = msg.sender;\r\n    }\r\n\r\n    struct Apartment {\r\n        uint256 id;\r\n        string name;\r\n        string location;\r\n        uint256 price;\r\n        bool isBought;\r\n        uint256 boughtAt;\r\n    }\r\n\r\n    struct Buyer {\r\n        address payable walletAddress;\r\n        string firstName;\r\n        string lastName;\r\n        uint256 balance;\r\n        uint256 due;\r\n        uint256 boughtApartmentId;\r\n    }\r\n\r\n    event ApartmentCreated(\r\n        uint256 id,\r\n        string name,\r\n        string location,\r\n        uint256 price,\r\n        bool isBought,\r\n        uint256 boughtAt\r\n    );\r\n\r\n    mapping(uint256 => Apartment) public apartments;\r\n    mapping(address => Buyer) public buyers;\r\n\r\n    modifier onlyOwner() {\r\n        require(msg.sender == owner, \"Only owner can perform this action\");\r\n        _;\r\n    }\r\n\r\n    function createApartment(string memory _name, string memory _location, uint256 _price) public onlyOwner {\r\n        apartmentCounter++;\r\n        apartments[apartmentCounter] = Apartment(\r\n            apartmentCounter,\r\n            _name,\r\n            _location,\r\n            _price,\r\n            false,\r\n            0\r\n        );\r\n        emit ApartmentCreated(\r\n            apartmentCounter,\r\n            _name,\r\n            _location,\r\n            _price,\r\n            false,\r\n            0\r\n        );\r\n    }\r\n\r\n    function buyApartment(uint256 apartmentId) public payable   {\r\n        Apartment storage apartment = apartments[apartmentId];\r\n        require(!apartment.isBought, \"Apartment already bought\");\r\n        require(msg.value >= apartment.price, \"Insufficient funds to buy the apartment\");\r\n\r\n        // Mark the apartment as bought\r\n        apartment.isBought = true;\r\n        apartment.boughtAt = block.timestamp;\r\n\r\n        // Update buyer's details\r\n        Buyer storage buyer = buyers[msg.sender];\r\n        if (buyer.walletAddress == address(0)) {\r\n            // Add new buyer if not already existing\r\n            buyer.walletAddress = payable(msg.sender);\r\n        }\r\n        buyer.balance += msg.value;\r\n        buyer.boughtApartmentId = apartmentId;\r\n\r\n        // Transfer funds to owner\r\n        payable(owner).transfer(msg.value);\r\n\r\n        // Emit event\r\n        emit ApartmentCreated(\r\n            apartmentId,\r\n            apartment.name,\r\n            apartment.location,\r\n            apartment.price,\r\n            apartment.isBought,\r\n            apartment.boughtAt\r\n        );\r\n    }\r\n\r\n    function getApartment(uint256 id) public view returns (Apartment memory) {\r\n        return apartments[id];\r\n    }\r\n\r\n    function getBuyer(address buyerAddress) public view returns (Buyer memory) {\r\n        return buyers[buyerAddress];\r\n    }\r\n}\r\n",
  "sourcePath": "C:\\Users\\Windows\\Documents\\Blockchain projects\\block\\vue-dapp\\contracts\\ApartmentContract.sol",
  "compiler": {
    "name": "solc",
    "version": "0.8.6+commit.11564f7e.Emscripten.clang"
  },
  "schemaVersion": "3.4.16",
  "updatedAt": "2024-08-21T03:23:36.851Z",
  "networkType": "ethereum",
  "devdoc": {
    "kind": "dev",
    "methods": {},
    "version": 1
  },
  "userdoc": {
    "kind": "user",
    "methods": {},
    "version": 1
  }
}